{
  "_format": "hh-sol-artifact-1",
  "contractName": "CoinFlip",
  "sourceName": "contracts/CoinFlip.sol",
  "abi": [
    {
      "inputs": [],
      "stateMutability": "nonpayable",
      "type": "constructor"
    },
    {
      "anonymous": false,
      "inputs": [
        {
          "indexed": false,
          "internalType": "address",
          "name": "player",
          "type": "address"
        },
        {
          "indexed": false,
          "internalType": "uint256",
          "name": "bet",
          "type": "uint256"
        },
        {
          "indexed": false,
          "internalType": "bool",
          "name": "choice",
          "type": "bool"
        },
        {
          "indexed": false,
          "internalType": "bool",
          "name": "result",
          "type": "bool"
        },
        {
          "indexed": false,
          "internalType": "bool",
          "name": "won",
          "type": "bool"
        },
        {
          "indexed": false,
          "internalType": "uint256",
          "name": "payout",
          "type": "uint256"
        }
      ],
      "name": "GameResult",
      "type": "event"
    },
    {
      "inputs": [],
      "name": "addFunds",
      "outputs": [],
      "stateMutability": "payable",
      "type": "function"
    },
    {
      "inputs": [
        {
          "internalType": "bool",
          "name": "choice",
          "type": "bool"
        }
      ],
      "name": "flipCoin",
      "outputs": [],
      "stateMutability": "payable",
      "type": "function"
    },
    {
      "inputs": [],
      "name": "getBalance",
      "outputs": [
        {
          "internalType": "uint256",
          "name": "",
          "type": "uint256"
        }
      ],
      "stateMutability": "view",
      "type": "function"
    },
    {
      "inputs": [],
      "name": "owner",
      "outputs": [
        {
          "internalType": "address",
          "name": "",
          "type": "address"
        }
      ],
      "stateMutability": "view",
      "type": "function"
    },
    {
      "inputs": [
        {
          "internalType": "uint256",
          "name": "amount",
          "type": "uint256"
        }
      ],
      "name": "withdraw",
      "outputs": [],
      "stateMutability": "nonpayable",
      "type": "function"
    }
  ],
  "bytecode": "0x6080604052348015600f57600080fd5b50336000806101000a81548173ffffffffffffffffffffffffffffffffffffffff021916908373ffffffffffffffffffffffffffffffffffffffff1602179055506109358061005f6000396000f3fe60806040526004361061004a5760003560e01c806312065fe01461004f5780632e1a7d4d1461007a5780637b8ff38f146100a35780638da5cb5b146100bf578063a26759cb146100ea575b600080fd5b34801561005b57600080fd5b506100646100f4565b6040516100719190610458565b60405180910390f35b34801561008657600080fd5b506100a1600480360381019061009c91906104a4565b6100fc565b005b6100bd60048036038101906100b89190610509565b6101f4565b005b3480156100cb57600080fd5b506100d461038b565b6040516100e19190610577565b60405180910390f35b6100f26103af565b005b600047905090565b60008054906101000a900473ffffffffffffffffffffffffffffffffffffffff1673ffffffffffffffffffffffffffffffffffffffff163373ffffffffffffffffffffffffffffffffffffffff161461018a576040517f08c379a0000000000000000000000000000000000000000000000000000000008152600401610181906105ef565b60405180910390fd5b60008054906101000a900473ffffffffffffffffffffffffffffffffffffffff1673ffffffffffffffffffffffffffffffffffffffff166108fc829081150290604051600060405180830381858888f193505050501580156101f0573d6000803e3d6000fd5b5050565b60003411610237576040517f08c379a000000000000000000000000000000000000000000000000000000000815260040161022e9061065b565b60405180910390fd5b6000600260033461024891906106aa565b610252919061071b565b905080471015610297576040517f08c379a000000000000000000000000000000000000000000000000000000000815260040161028e90610798565b60405180910390fd5b6000806002426102a791906107b8565b14905082151581151503610343573373ffffffffffffffffffffffffffffffffffffffff166108fc839081150290604051600060405180830381858888f193505050501580156102fb573d6000803e3d6000fd5b507f54a407ae30e9b460514facd39db176ceebf02228fef3558fc5d96d52d3100dca33348584600187604051610336969594939291906107f8565b60405180910390a1610386565b7f54a407ae30e9b460514facd39db176ceebf02228fef3558fc5d96d52d3100dca3334858460008060405161037d9695949392919061089e565b60405180910390a15b505050565b60008054906101000a900473ffffffffffffffffffffffffffffffffffffffff1681565b60008054906101000a900473ffffffffffffffffffffffffffffffffffffffff1673ffffffffffffffffffffffffffffffffffffffff163373ffffffffffffffffffffffffffffffffffffffff161461043d576040517f08c379a0000000000000000000000000000000000000000000000000000000008152600401610434906105ef565b60405180910390fd5b565b6000819050919050565b6104528161043f565b82525050565b600060208201905061046d6000830184610449565b92915050565b600080fd5b6104818161043f565b811461048c57600080fd5b50565b60008135905061049e81610478565b92915050565b6000602082840312156104ba576104b9610473565b5b60006104c88482850161048f565b91505092915050565b60008115159050919050565b6104e6816104d1565b81146104f157600080fd5b50565b600081359050610503816104dd565b92915050565b60006020828403121561051f5761051e610473565b5b600061052d848285016104f4565b91505092915050565b600073ffffffffffffffffffffffffffffffffffffffff82169050919050565b600061056182610536565b9050919050565b61057181610556565b82525050565b600060208201905061058c6000830184610568565b92915050565b600082825260208201905092915050565b7f4f6e6c79206f776e657200000000000000000000000000000000000000000000600082015250565b60006105d9600a83610592565b91506105e4826105a3565b602082019050919050565b60006020820190508181036000830152610608816105cc565b9050919050565b7f4d7573742062657420736f6d657468696e670000000000000000000000000000600082015250565b6000610645601283610592565b91506106508261060f565b602082019050919050565b6000602082019050818103600083015261067481610638565b9050919050565b7f4e487b7100000000000000000000000000000000000000000000000000000000600052601160045260246000fd5b60006106b58261043f565b91506106c08361043f565b92508282026106ce8161043f565b915082820484148315176106e5576106e461067b565b5b5092915050565b7f4e487b7100000000000000000000000000000000000000000000000000000000600052601260045260246000fd5b60006107268261043f565b91506107318361043f565b925082610741576107406106ec565b5b828204905092915050565b7f4e6f7420656e6f7567682066756e647320696e20636f6e747261637400000000600082015250565b6000610782601c83610592565b915061078d8261074c565b602082019050919050565b600060208201905081810360008301526107b181610775565b9050919050565b60006107c38261043f565b91506107ce8361043f565b9250826107de576107dd6106ec565b5b828206905092915050565b6107f2816104d1565b82525050565b600060c08201905061080d6000830189610568565b61081a6020830188610449565b61082760408301876107e9565b61083460608301866107e9565b61084160808301856107e9565b61084e60a0830184610449565b979650505050505050565b6000819050919050565b6000819050919050565b600061088861088361087e84610859565b610863565b61043f565b9050919050565b6108988161086d565b82525050565b600060c0820190506108b36000830189610568565b6108c06020830188610449565b6108cd60408301876107e9565b6108da60608301866107e9565b6108e760808301856107e9565b6108f460a083018461088f565b97965050505050505056fea264697066735822122008cf55ac2b1ef297daddc20a839add1698bae62cfb8c14bd3edd49c4d2a8f85a64736f6c634300081c0033",
  "linkReferences": {},
  "deployedLinkReferences": {}
}